{
  "contractName": "Voting",
  "abi": [
    {
      "inputs": [],
      "stateMutability": "nonpayable",
      "type": "constructor"
    },
    {
      "inputs": [
        {
          "internalType": "string",
          "name": "_name",
          "type": "string"
        }
      ],
      "name": "addCandidate",
      "outputs": [],
      "stateMutability": "payable",
      "type": "function",
      "payable": true
    },
    {
      "inputs": [
        {
          "internalType": "string",
          "name": "_name",
          "type": "string"
        }
      ],
      "name": "vote",
      "outputs": [],
      "stateMutability": "nonpayable",
      "type": "function"
    },
    {
      "inputs": [],
      "name": "getWinner",
      "outputs": [
        {
          "internalType": "string",
          "name": "winnerName",
          "type": "string"
        }
      ],
      "stateMutability": "view",
      "type": "function",
      "constant": true
    },
    {
      "inputs": [],
      "name": "getCandidateList",
      "outputs": [
        {
          "internalType": "string[]",
          "name": "",
          "type": "string[]"
        }
      ],
      "stateMutability": "view",
      "type": "function",
      "constant": true
    },
    {
      "inputs": [
        {
          "internalType": "string",
          "name": "_name",
          "type": "string"
        }
      ],
      "name": "getCandidateDetails",
      "outputs": [
        {
          "internalType": "string",
          "name": "name",
          "type": "string"
        },
        {
          "internalType": "uint256",
          "name": "votes",
          "type": "uint256"
        },
        {
          "internalType": "bool",
          "name": "exists",
          "type": "bool"
        }
      ],
      "stateMutability": "view",
      "type": "function",
      "constant": true
    },
    {
      "inputs": [],
      "name": "getCandidateFee",
      "outputs": [
        {
          "internalType": "uint256",
          "name": "",
          "type": "uint256"
        }
      ],
      "stateMutability": "view",
      "type": "function",
      "constant": true
    },
    {
      "inputs": [],
      "name": "checkMyVoteStatus",
      "outputs": [
        {
          "internalType": "string",
          "name": "",
          "type": "string"
        }
      ],
      "stateMutability": "view",
      "type": "function",
      "constant": true
    },
    {
      "inputs": [],
      "name": "getOwner",
      "outputs": [
        {
          "internalType": "address",
          "name": "",
          "type": "address"
        }
      ],
      "stateMutability": "view",
      "type": "function",
      "constant": true
    }
  ],
  "bytecode": "0x6080604052662386f26fc1000060015534801561001b57600080fd5b50336000806101000a81548173ffffffffffffffffffffffffffffffffffffffff021916908373ffffffffffffffffffffffffffffffffffffffff1602179055506111e88061006b6000396000f3fe60806040526004361061007b5760003560e01c80638e7ea5b21161004e5780638e7ea5b214610131578063a9fba2121461015c578063fc36e15b14610187578063fdbc4006146101b05761007b565b80630c275aeb1461008057806312cdd5fe146100bf578063462e91ec146100ea578063893d20e814610106575b600080fd5b34801561008c57600080fd5b506100a760048036038101906100a29190610aa8565b6101db565b6040516100b693929190610e44565b60405180910390f35b3480156100cb57600080fd5b506100d46102e1565b6040516100e19190610e22565b60405180910390f35b61010460048036038101906100ff9190610aa8565b6103ae565b005b34801561011257600080fd5b5061011b610528565b6040516101289190610de5565b60405180910390f35b34801561013d57600080fd5b50610146610551565b6040516101539190610e22565b60405180910390f35b34801561016857600080fd5b5061017161072d565b60405161017e9190610f22565b60405180910390f35b34801561019357600080fd5b506101ae60048036038101906101a99190610aa8565b610737565b005b3480156101bc57600080fd5b506101c56108c4565b6040516101d29190610e00565b60405180910390f35b606060008060006002856040516101f29190610dce565b908152602001604051809103902060405180606001604052908160008201805461021b90611099565b80601f016020809104026020016040519081016040528092919081815260200182805461024790611099565b80156102945780601f1061026957610100808354040283529160200191610294565b820191906000526020600020905b81548152906001019060200180831161027757829003601f168201915b50505050508152602001600182015481526020016002820160009054906101000a900460ff1615151515815250509050806000015181602001518260400151935093509350509193909250565b6060600460003373ffffffffffffffffffffffffffffffffffffffff1673ffffffffffffffffffffffffffffffffffffffff16815260200190815260200160002060009054906101000a900460ff1615610372576040518060400160405280601a81526020017f546869732061647265737320616c726561647920766f7465642100000000000081525090506103ab565b6040518060400160405280601b81526020017f5468697320616472657373206469646e277420766f746520796574000000000081525090505b90565b6001543410156103f3576040517f08c379a00000000000000000000000000000000000000000000000000000000081526004016103ea90610e82565b60405180910390fd5b6002816040516104039190610dce565b908152602001604051809103902060020160009054906101000a900460ff1615610462576040517f08c379a000000000000000000000000000000000000000000000000000000000815260040161045990610ea2565b60405180910390fd5b604051806060016040528082815260200160008152602001600115158152506002826040516104919190610dce565b908152602001604051809103902060008201518160000190805190602001906104bb92919061099d565b506020820151816001015560408201518160020160006101000a81548160ff02191690831515021790555090505060038190806001815401808255809150506001900390600052602060002001600090919091909150908051906020019061052492919061099d565b5050565b60008060009054906101000a900473ffffffffffffffffffffffffffffffffffffffff16905090565b606060008054906101000a900473ffffffffffffffffffffffffffffffffffffffff1673ffffffffffffffffffffffffffffffffffffffff163373ffffffffffffffffffffffffffffffffffffffff16146105e1576040517f08c379a00000000000000000000000000000000000000000000000000000000081526004016105d890610ee2565b60405180910390fd5b6000805b6003805490508110156107285760006003828154811061062e577f4e487b7100000000000000000000000000000000000000000000000000000000600052603260045260246000fd5b90600052602060002001805461064390611099565b80601f016020809104026020016040519081016040528092919081815260200182805461066f90611099565b80156106bc5780601f10610691576101008083540402835291602001916106bc565b820191906000526020600020905b81548152906001019060200180831161069f57829003601f168201915b50505050509050826002826040516106d49190610dce565b9081526020016040518091039020600101541115610714576002816040516106fc9190610dce565b90815260200160405180910390206001015492508093505b508080610720906110cb565b9150506105e5565b505090565b6000600154905090565b600460003373ffffffffffffffffffffffffffffffffffffffff1673ffffffffffffffffffffffffffffffffffffffff16815260200190815260200160002060009054906101000a900460ff16156107c4576040517f08c379a00000000000000000000000000000000000000000000000000000000081526004016107bb90610f02565b60405180910390fd5b6002816040516107d49190610dce565b908152602001604051809103902060020160009054906101000a900460ff16610832576040517f08c379a000000000000000000000000000000000000000000000000000000000815260040161082990610ec2565b60405180910390fd5b6002816040516108429190610dce565b90815260200160405180910390206001016000815480929190610864906110cb565b91905055506001600460003373ffffffffffffffffffffffffffffffffffffffff1673ffffffffffffffffffffffffffffffffffffffff16815260200190815260200160002060006101000a81548160ff02191690831515021790555050565b60606003805480602002602001604051908101604052809291908181526020016000905b8282101561099457838290600052602060002001805461090790611099565b80601f016020809104026020016040519081016040528092919081815260200182805461093390611099565b80156109805780601f1061095557610100808354040283529160200191610980565b820191906000526020600020905b81548152906001019060200180831161096357829003601f168201915b5050505050815260200190600101906108e8565b50505050905090565b8280546109a990611099565b90600052602060002090601f0160209004810192826109cb5760008555610a12565b82601f106109e457805160ff1916838001178555610a12565b82800160010185558215610a12579182015b82811115610a115782518255916020019190600101906109f6565b5b509050610a1f9190610a23565b5090565b5b80821115610a3c576000816000905550600101610a24565b5090565b6000610a53610a4e84610f6e565b610f3d565b905082815260208101848484011115610a6b57600080fd5b610a76848285611057565b509392505050565b600082601f830112610a8f57600080fd5b8135610a9f848260208601610a40565b91505092915050565b600060208284031215610aba57600080fd5b600082013567ffffffffffffffff811115610ad457600080fd5b610ae084828501610a7e565b91505092915050565b6000610af58383610b90565b905092915050565b610b068161100f565b82525050565b6000610b1782610fae565b610b218185610fd1565b935083602082028501610b3385610f9e565b8060005b85811015610b6f5784840389528151610b508582610ae9565b9450610b5b83610fc4565b925060208a01995050600181019050610b37565b50829750879550505050505092915050565b610b8a81611021565b82525050565b6000610b9b82610fb9565b610ba58185610fe2565b9350610bb5818560208601611066565b610bbe816111a1565b840191505092915050565b6000610bd482610fb9565b610bde8185610ff3565b9350610bee818560208601611066565b610bf7816111a1565b840191505092915050565b6000610c0d82610fb9565b610c178185611004565b9350610c27818560208601611066565b80840191505092915050565b6000610c40602183610ff3565b91507f496e73756666696369656e742066656520746f206164642063616e646964617460008301527f65000000000000000000000000000000000000000000000000000000000000006020830152604082019050919050565b6000610ca6601883610ff3565b91507f43616e64696461746520616c72656164792065786973747300000000000000006000830152602082019050919050565b6000610ce6601883610ff3565b91507f43616e64696461746520646f6573206e6f7420657869737400000000000000006000830152602082019050919050565b6000610d26602383610ff3565b91507f4f6e6c79206f776e65722063616e2064657465726d696e65207468652077696e60008301527f6e657200000000000000000000000000000000000000000000000000000000006020830152604082019050919050565b6000610d8c601683610ff3565b91507f596f75206861766520616c726561647920766f746564000000000000000000006000830152602082019050919050565b610dc88161104d565b82525050565b6000610dda8284610c02565b915081905092915050565b6000602082019050610dfa6000830184610afd565b92915050565b60006020820190508181036000830152610e1a8184610b0c565b905092915050565b60006020820190508181036000830152610e3c8184610bc9565b905092915050565b60006060820190508181036000830152610e5e8186610bc9565b9050610e6d6020830185610dbf565b610e7a6040830184610b81565b949350505050565b60006020820190508181036000830152610e9b81610c33565b9050919050565b60006020820190508181036000830152610ebb81610c99565b9050919050565b60006020820190508181036000830152610edb81610cd9565b9050919050565b60006020820190508181036000830152610efb81610d19565b9050919050565b60006020820190508181036000830152610f1b81610d7f565b9050919050565b6000602082019050610f376000830184610dbf565b92915050565b6000604051905081810181811067ffffffffffffffff82111715610f6457610f63611172565b5b8060405250919050565b600067ffffffffffffffff821115610f8957610f88611172565b5b601f19601f8301169050602081019050919050565b6000819050602082019050919050565b600081519050919050565b600081519050919050565b6000602082019050919050565b600082825260208201905092915050565b600082825260208201905092915050565b600082825260208201905092915050565b600081905092915050565b600061101a8261102d565b9050919050565b60008115159050919050565b600073ffffffffffffffffffffffffffffffffffffffff82169050919050565b6000819050919050565b82818337600083830152505050565b60005b83811015611084578082015181840152602081019050611069565b83811115611093576000848401525b50505050565b600060028204905060018216806110b157607f821691505b602082108114156110c5576110c4611143565b5b50919050565b60006110d68261104d565b91507fffffffffffffffffffffffffffffffffffffffffffffffffffffffffffffffff82141561110957611108611114565b5b600182019050919050565b7f4e487b7100000000000000000000000000000000000000000000000000000000600052601160045260246000fd5b7f4e487b7100000000000000000000000000000000000000000000000000000000600052602260045260246000fd5b7f4e487b7100000000000000000000000000000000000000000000000000000000600052604160045260246000fd5b6000601f19601f830116905091905056fea2646970667358221220da6584076d1a2b25ffbd68891c70fc2324cfa6ba1c18173e7190bad48235fd1764736f6c63430008000033",
  "immutableReferences": {},
  "source": "// SPDX-License-Identifier: MIT\r\npragma solidity ^0.8.0;\r\n\r\ncontract Voting \r\n{\r\n\r\n    address private owner;\r\n    uint private candidateFee = 0.01 ether;\r\n\r\n    struct Candidate \r\n    {\r\n        string name;\r\n        uint votes;\r\n        bool exists;\r\n    }\r\n\r\n    mapping(string => Candidate) private candidates;\r\n    string[] private candidateList;\r\n    mapping(address => bool) private voters;\r\n\r\n    constructor() \r\n    {\r\n        owner = msg.sender;\r\n    }\r\n\r\n    function addCandidate(string memory _name) public payable \r\n    {\r\n        require(msg.value >= candidateFee, \"Insufficient fee to add candidate\");\r\n        require(!candidates[_name].exists, \"Candidate already exists\");\r\n\r\n        candidates[_name] = Candidate({\r\n            name: _name,\r\n            votes: 0,\r\n            exists: true\r\n        });\r\n        candidateList.push(_name);\r\n    }\r\n\r\n    function vote(string memory _name) public \r\n    {\r\n        require(!voters[msg.sender], \"You have already voted\");\r\n        require(candidates[_name].exists, \"Candidate does not exist\");\r\n\r\n        candidates[_name].votes++;\r\n        voters[msg.sender] = true;\r\n    }\r\n\r\n    function getWinner() public view returns (string memory winnerName) \r\n    {\r\n        require(msg.sender == owner, \"Only owner can determine the winner\");\r\n\r\n        uint highestVotes = 0;\r\n        for (uint i = 0; i < candidateList.length; i++) {\r\n            string memory currentCandidate = candidateList[i];\r\n            if (candidates[currentCandidate].votes > highestVotes) {\r\n                highestVotes = candidates[currentCandidate].votes;\r\n                winnerName = currentCandidate;\r\n            }\r\n        }\r\n    }\r\n\r\n    function getCandidateList() public view returns (string[] memory) \r\n    {\r\n        return candidateList;\r\n    }\r\n\r\n    function getCandidateDetails(string memory _name) public view returns (string memory name, uint votes, bool exists) \r\n    {\r\n        Candidate memory cand = candidates[_name];\r\n        return (cand.name, cand.votes, cand.exists);\r\n    }\r\n\r\n    function getCandidateFee() public view returns (uint) {\r\n        return candidateFee;\r\n    }\r\n\r\n    function checkMyVoteStatus() public view returns (string memory) \r\n    {\r\n        if (voters[msg.sender]) {\r\n            return \"This adress already voted!\";\r\n        } else {\r\n            return \"This adress didn't vote yet\";\r\n        }\r\n    }\r\n\r\n    function getOwner() public view returns (address) {\r\n        return owner;\r\n    }\r\n}",
  "sourcePath": "D:\\STUDY\\voting_contract_app\\contracts\\Voting.sol",
  "compiler": {
    "name": "solc",
    "version": "0.8.0+commit.c7dfd78e.Emscripten.clang"
  },
  "schemaVersion": "3.4.16",
  "updatedAt": "2025-02-21T11:42:07.735Z",
  "networkType": "ethereum",
  "devdoc": {
    "kind": "dev",
    "methods": {},
    "version": 1
  },
  "userdoc": {
    "kind": "user",
    "methods": {},
    "version": 1
  }
}